{
  "_format": "hh-sol-artifact-1",
  "contractName": "PaynderContract",
  "sourceName": "contracts/PaynderContract.sol",
  "abi": [
    {
      "inputs": [],
      "stateMutability": "nonpayable",
      "type": "constructor"
    },
    {
      "inputs": [
        {
          "internalType": "address",
          "name": "owner",
          "type": "address"
        }
      ],
      "name": "OwnableInvalidOwner",
      "type": "error"
    },
    {
      "inputs": [
        {
          "internalType": "address",
          "name": "account",
          "type": "address"
        }
      ],
      "name": "OwnableUnauthorizedAccount",
      "type": "error"
    },
    {
      "inputs": [],
      "name": "ReentrancyGuardReentrantCall",
      "type": "error"
    },
    {
      "anonymous": false,
      "inputs": [
        {
          "indexed": false,
          "internalType": "string",
          "name": "invoiceNumber",
          "type": "string"
        },
        {
          "indexed": false,
          "internalType": "address",
          "name": "recipient",
          "type": "address"
        },
        {
          "indexed": false,
          "internalType": "uint256",
          "name": "amount",
          "type": "uint256"
        },
        {
          "indexed": false,
          "internalType": "enum PaynderContract.PaymentMethod",
          "name": "method",
          "type": "uint8"
        }
      ],
      "name": "InvoiceCreated",
      "type": "event"
    },
    {
      "anonymous": false,
      "inputs": [
        {
          "indexed": false,
          "internalType": "string",
          "name": "invoiceNumber",
          "type": "string"
        },
        {
          "indexed": true,
          "internalType": "address",
          "name": "payer",
          "type": "address"
        },
        {
          "indexed": false,
          "internalType": "uint256",
          "name": "amount",
          "type": "uint256"
        },
        {
          "indexed": false,
          "internalType": "enum PaynderContract.PaymentMethod",
          "name": "method",
          "type": "uint8"
        }
      ],
      "name": "InvoicePaid",
      "type": "event"
    },
    {
      "anonymous": false,
      "inputs": [
        {
          "indexed": false,
          "internalType": "string",
          "name": "mpesaTransactionId",
          "type": "string"
        },
        {
          "indexed": false,
          "internalType": "string",
          "name": "invoiceNumber",
          "type": "string"
        },
        {
          "indexed": false,
          "internalType": "string",
          "name": "phoneNumber",
          "type": "string"
        }
      ],
      "name": "MpesaPaymentProcessed",
      "type": "event"
    },
    {
      "anonymous": false,
      "inputs": [
        {
          "indexed": true,
          "internalType": "address",
          "name": "previousOwner",
          "type": "address"
        },
        {
          "indexed": true,
          "internalType": "address",
          "name": "newOwner",
          "type": "address"
        }
      ],
      "name": "OwnershipTransferred",
      "type": "event"
    },
    {
      "inputs": [
        {
          "internalType": "string",
          "name": "_invoiceNumber",
          "type": "string"
        },
        {
          "internalType": "uint256",
          "name": "_amount",
          "type": "uint256"
        },
        {
          "internalType": "address",
          "name": "_tokenAddress",
          "type": "address"
        },
        {
          "internalType": "uint256",
          "name": "_dueDate",
          "type": "uint256"
        },
        {
          "internalType": "string",
          "name": "_description",
          "type": "string"
        },
        {
          "internalType": "enum PaynderContract.PaymentMethod",
          "name": "_method",
          "type": "uint8"
        },
        {
          "internalType": "string",
          "name": "_mpesaPhone",
          "type": "string"
        }
      ],
      "name": "createInvoice",
      "outputs": [],
      "stateMutability": "nonpayable",
      "type": "function"
    },
    {
      "inputs": [],
      "name": "getUserInvoicecount",
      "outputs": [
        {
          "internalType": "uint256",
          "name": "",
          "type": "uint256"
        }
      ],
      "stateMutability": "view",
      "type": "function"
    },
    {
      "inputs": [
        {
          "internalType": "string",
          "name": "",
          "type": "string"
        }
      ],
      "name": "invoices",
      "outputs": [
        {
          "internalType": "string",
          "name": "invoiceNumber",
          "type": "string"
        },
        {
          "internalType": "address payable",
          "name": "recipient",
          "type": "address"
        },
        {
          "internalType": "uint256",
          "name": "amount",
          "type": "uint256"
        },
        {
          "internalType": "address",
          "name": "tokenAddress",
          "type": "address"
        },
        {
          "internalType": "bool",
          "name": "isPaid",
          "type": "bool"
        },
        {
          "internalType": "uint256",
          "name": "dueDate",
          "type": "uint256"
        },
        {
          "internalType": "string",
          "name": "description",
          "type": "string"
        },
        {
          "internalType": "enum PaynderContract.PaymentMethod",
          "name": "paymentMethod",
          "type": "uint8"
        },
        {
          "internalType": "string",
          "name": "mpesaPhone",
          "type": "string"
        }
      ],
      "stateMutability": "view",
      "type": "function"
    },
    {
      "inputs": [
        {
          "internalType": "string",
          "name": "",
          "type": "string"
        }
      ],
      "name": "mpesaTransactionToInvoice",
      "outputs": [
        {
          "internalType": "string",
          "name": "",
          "type": "string"
        }
      ],
      "stateMutability": "view",
      "type": "function"
    },
    {
      "inputs": [],
      "name": "owner",
      "outputs": [
        {
          "internalType": "address",
          "name": "",
          "type": "address"
        }
      ],
      "stateMutability": "view",
      "type": "function"
    },
    {
      "inputs": [
        {
          "internalType": "string",
          "name": "_invoiceNumber",
          "type": "string"
        }
      ],
      "name": "payInvoiceWithWallet",
      "outputs": [],
      "stateMutability": "nonpayable",
      "type": "function"
    },
    {
      "inputs": [
        {
          "internalType": "string",
          "name": "_mpesaTransactionId",
          "type": "string"
        },
        {
          "internalType": "string",
          "name": "_invoiceNumber",
          "type": "string"
        },
        {
          "internalType": "string",
          "name": "_phoneNumber",
          "type": "string"
        }
      ],
      "name": "processMpesaPayment",
      "outputs": [],
      "stateMutability": "nonpayable",
      "type": "function"
    },
    {
      "inputs": [],
      "name": "renounceOwnership",
      "outputs": [],
      "stateMutability": "nonpayable",
      "type": "function"
    },
    {
      "inputs": [
        {
          "internalType": "address",
          "name": "newOwner",
          "type": "address"
        }
      ],
      "name": "transferOwnership",
      "outputs": [],
      "stateMutability": "nonpayable",
      "type": "function"
    }
  ],
  "bytecode": "0x608060405234801561001057600080fd5b506001600055338061003c57604051631e4fbdf760e01b81526000600482015260240160405180910390fd5b6100458161004b565b5061009d565b600180546001600160a01b038381166001600160a01b0319831681179093556040519116919082907f8be0079c531659141344cd1fd0a4f28419497f9722a3daafe3b4186f6b6457e090600090a35050565b611152806100ac6000396000f3fe608060405234801561001057600080fd5b50600436106100935760003560e01c80639f599433116100665780639f599433146100e8578063c9d17907146100fb578063cf4b8ac81461011b578063e8b9b5ff14610143578063f2fde38b1461016157600080fd5b8063715018a614610098578063867fcf88146100a25780638ad9179d146100b55780638da5cb5b146100c8575b600080fd5b6100a0610174565b005b6100a06100b0366004610bd9565b610188565b6100a06100c3366004610c61565b610345565b6001546040516001600160a01b0390911681526020015b60405180910390f35b6100a06100f6366004610cba565b61059a565b61010e610109366004610c61565b6107a3565b6040516100df9190610dcf565b61012e610129366004610c61565b610848565b6040516100df99989796959493929190610e21565b336000908152600460205260409020546040519081526020016100df565b6100a061016f366004610ea8565b610a52565b61017c610a8d565b6101866000610aba565b565b610190610a8d565b610198610b0c565b60006002836040516101aa9190610ec3565b908152604051908190036020019020600381015490915060ff600160a01b90910416156102155760405162461bcd60e51b8152602060048201526014602482015273125b9d9bda58d948185b1c9958591e481c185a5960621b60448201526064015b60405180910390fd5b6001600682015460ff16600181111561023057610230610de9565b146102765760405162461bcd60e51b8152602060048201526016602482015275125b9d985b1a59081c185e5b595b9d081b595d1a1bd960521b604482015260640161020c565b6003808201805460ff60a01b1916600160a01b17905560405184919061029d908790610ec3565b908152602001604051809103902090816102b79190610f67565b507f3bdb50167b15227700f7e55ba96047f71ed2fd16dd54dbf112f1026de3a9eb658484846040516102eb93929190611027565b60405180910390a1600281015460405130917fe989abf30872db2cd99b5ed522fd9379dd22917ca579d2ab9c292effad5cfea39161032d91879160019061106a565b60405180910390a2506103406001600055565b505050565b61034d610b0c565b600060028260405161035f9190610ec3565b908152604051908190036020019020600381015490915060ff600160a01b90910416156103c55760405162461bcd60e51b8152602060048201526014602482015273125b9d9bda58d948185b1c9958591e481c185a5960621b604482015260640161020c565b6000600682015460ff1660018111156103e0576103e0610de9565b146104265760405162461bcd60e51b8152602060048201526016602482015275125b9d985b1a59081c185e5b595b9d081b595d1a1bd960521b604482015260640161020c565b806004015442111561046c5760405162461bcd60e51b815260206004820152600f60248201526e125b9d9bda58d948195e1c1a5c9959608a1b604482015260640161020c565b6003810154600182015460028301546040516323b872dd60e01b81523360048201526001600160a01b039283166024820152604481019190915291169081906323b872dd906064016020604051808303816000875af11580156104d3573d6000803e3d6000fd5b505050506040513d601f19601f820116820180604052508101906104f79190611092565b6105345760405162461bcd60e51b815260206004820152600e60248201526d14185e5b595b9d0819985a5b195960921b604482015260640161020c565b60038201805460ff60a01b1916600160a01b179055600282015460405133917fe989abf30872db2cd99b5ed522fd9379dd22917ca579d2ab9c292effad5cfea39161058391879160009061106a565b60405180910390a250506105976001600055565b50565b600086116105ea5760405162461bcd60e51b815260206004820152601d60248201527f416d6f756e74206d7573742062652067726561746572207468616e2030000000604482015260640161020c565b604051806101200160405280888152602001336001600160a01b03168152602001878152602001866001600160a01b0316815260200160001515815260200185815260200184815260200183600181111561064757610647610de9565b8152602001828152506002886040516106609190610ec3565b9081526040519081900360200190208151819061067d9082610f67565b5060208201516001820180546001600160a01b0319166001600160a01b039283161790556040830151600283015560608301516003830180546080860151929093166001600160a81b031990931692909217600160a01b9115159190910217905560a0820151600482015560c082015160058201906106fc9082610f67565b5060e082015160068201805460ff19166001838181111561071f5761071f610de9565b021790555061010082015160078201906107399082610f67565b50503360009081526004602052604081208054925090610758836110b4565b91905055507fdc9a18ff4f059695cd1283185d3cd2b812e87c87a6eb8f9cff7f80355398f1978733888560405161079294939291906110db565b60405180910390a150505050505050565b8051602081830181018051600382529282019190930120915280546107c790610edf565b80601f01602080910402602001604051908101604052809291908181526020018280546107f390610edf565b80156108405780601f1061081557610100808354040283529160200191610840565b820191906000526020600020905b81548152906001019060200180831161082357829003601f168201915b505050505081565b805160208183018101805160028252928201919093012091528054819061086e90610edf565b80601f016020809104026020016040519081016040528092919081815260200182805461089a90610edf565b80156108e75780601f106108bc576101008083540402835291602001916108e7565b820191906000526020600020905b8154815290600101906020018083116108ca57829003601f168201915b50505050600183015460028401546003850154600486015460058701805496976001600160a01b039586169794965094831694600160a01b90930460ff169391929161093290610edf565b80601f016020809104026020016040519081016040528092919081815260200182805461095e90610edf565b80156109ab5780601f10610980576101008083540402835291602001916109ab565b820191906000526020600020905b81548152906001019060200180831161098e57829003601f168201915b5050506006840154600785018054949560ff9092169491935091506109cf90610edf565b80601f01602080910402602001604051908101604052809291908181526020018280546109fb90610edf565b8015610a485780601f10610a1d57610100808354040283529160200191610a48565b820191906000526020600020905b815481529060010190602001808311610a2b57829003601f168201915b5050505050905089565b610a5a610a8d565b6001600160a01b038116610a8457604051631e4fbdf760e01b81526000600482015260240161020c565b61059781610aba565b6001546001600160a01b031633146101865760405163118cdaa760e01b815233600482015260240161020c565b600180546001600160a01b038381166001600160a01b0319831681179093556040519116919082907f8be0079c531659141344cd1fd0a4f28419497f9722a3daafe3b4186f6b6457e090600090a35050565b600260005403610b2f57604051633ee5aeb560e01b815260040160405180910390fd5b6002600055565b634e487b7160e01b600052604160045260246000fd5b600082601f830112610b5d57600080fd5b813567ffffffffffffffff80821115610b7857610b78610b36565b604051601f8301601f19908116603f01168101908282118183101715610ba057610ba0610b36565b81604052838152866020858801011115610bb957600080fd5b836020870160208301376000602085830101528094505050505092915050565b600080600060608486031215610bee57600080fd5b833567ffffffffffffffff80821115610c0657600080fd5b610c1287838801610b4c565b94506020860135915080821115610c2857600080fd5b610c3487838801610b4c565b93506040860135915080821115610c4a57600080fd5b50610c5786828701610b4c565b9150509250925092565b600060208284031215610c7357600080fd5b813567ffffffffffffffff811115610c8a57600080fd5b610c9684828501610b4c565b949350505050565b80356001600160a01b0381168114610cb557600080fd5b919050565b600080600080600080600060e0888a031215610cd557600080fd5b873567ffffffffffffffff80821115610ced57600080fd5b610cf98b838c01610b4c565b985060208a01359750610d0e60408b01610c9e565b965060608a0135955060808a0135915080821115610d2b57600080fd5b610d378b838c01610b4c565b945060a08a0135915060028210610d4d57600080fd5b90925060c08901359080821115610d6357600080fd5b50610d708a828b01610b4c565b91505092959891949750929550565b60005b83811015610d9a578181015183820152602001610d82565b50506000910152565b60008151808452610dbb816020860160208601610d7f565b601f01601f19169290920160200192915050565b602081526000610de26020830184610da3565b9392505050565b634e487b7160e01b600052602160045260246000fd5b60028110610e1d57634e487b7160e01b600052602160045260246000fd5b9052565b6000610120808352610e358184018d610da3565b6001600160a01b038c81166020860152604085018c90528a166060850152881515608085015260a0840188905283810360c08501529050610e768187610da3565b9050610e8560e0840186610dff565b828103610100840152610e988185610da3565b9c9b505050505050505050505050565b600060208284031215610eba57600080fd5b610de282610c9e565b60008251610ed5818460208701610d7f565b9190910192915050565b600181811c90821680610ef357607f821691505b602082108103610f1357634e487b7160e01b600052602260045260246000fd5b50919050565b601f82111561034057600081815260208120601f850160051c81016020861015610f405750805b601f850160051c820191505b81811015610f5f57828155600101610f4c565b505050505050565b815167ffffffffffffffff811115610f8157610f81610b36565b610f9581610f8f8454610edf565b84610f19565b602080601f831160018114610fca5760008415610fb25750858301515b600019600386901b1c1916600185901b178555610f5f565b600085815260208120601f198616915b82811015610ff957888601518255948401946001909101908401610fda565b50858210156110175787850151600019600388901b60f8161c191681555b5050505050600190811b01905550565b60608152600061103a6060830186610da3565b828103602084015261104c8186610da3565b905082810360408401526110608185610da3565b9695505050505050565b60608152600061107d6060830186610da3565b9050836020830152610c966040830184610dff565b6000602082840312156110a457600080fd5b81518015158114610de257600080fd5b6000600182016110d457634e487b7160e01b600052601160045260246000fd5b5060010190565b6080815260006110ee6080830187610da3565b6001600160a01b03861660208401526040830185905290506111136060830184610dff565b9594505050505056fea26469706673582212203f97f37d40d81bad07de17baff3a5e2e09c4452c17a58c6d9f550edc27db0a3864736f6c63430008140033",
  "linkReferences": {},
  "deployedLinkReferences": {}
}